{
  "_format": "hh-sol-artifact-1",
  "contractName": "Split3",
  "sourceName": "contracts/Split3.sol",
  "abi": [
    {
      "inputs": [
        {
          "internalType": "address",
          "name": "member",
          "type": "address"
        }
      ],
      "name": "addMember",
      "outputs": [],
      "stateMutability": "nonpayable",
      "type": "function"
    },
    {
      "inputs": [
        {
          "internalType": "address",
          "name": "debtor",
          "type": "address"
        },
        {
          "internalType": "address",
          "name": "payer",
          "type": "address"
        },
        {
          "internalType": "int256",
          "name": "amount",
          "type": "int256"
        }
      ],
      "name": "adjust",
      "outputs": [],
      "stateMutability": "nonpayable",
      "type": "function"
    },
    {
      "inputs": [
        {
          "internalType": "address",
          "name": "",
          "type": "address"
        }
      ],
      "name": "balances",
      "outputs": [
        {
          "internalType": "int256",
          "name": "",
          "type": "int256"
        }
      ],
      "stateMutability": "view",
      "type": "function"
    },
    {
      "inputs": [],
      "name": "deposit",
      "outputs": [],
      "stateMutability": "payable",
      "type": "function"
    },
    {
      "inputs": [],
      "name": "getMembers",
      "outputs": [
        {
          "internalType": "address[]",
          "name": "",
          "type": "address[]"
        }
      ],
      "stateMutability": "view",
      "type": "function"
    },
    {
      "inputs": [
        {
          "internalType": "uint256",
          "name": "",
          "type": "uint256"
        }
      ],
      "name": "members",
      "outputs": [
        {
          "internalType": "address",
          "name": "",
          "type": "address"
        }
      ],
      "stateMutability": "view",
      "type": "function"
    },
    {
      "inputs": [
        {
          "internalType": "address payable",
          "name": "addr",
          "type": "address"
        }
      ],
      "name": "settle",
      "outputs": [],
      "stateMutability": "payable",
      "type": "function"
    },
    {
      "inputs": [
        {
          "internalType": "uint256",
          "name": "amount",
          "type": "uint256"
        }
      ],
      "name": "withdraw",
      "outputs": [],
      "stateMutability": "nonpayable",
      "type": "function"
    }
  ],
  "bytecode": "0x608060405234801561001057600080fd5b50610c54806100206000396000f3fe60806040526004361061007b5760003560e01c80636a256b291161004e5780636a256b291461014c5780639eab525314610168578063ca6d56dc14610193578063d0e30db0146101bc5761007b565b806327e235e3146100805780632e1a7d4d146100bd57806352416ec9146100e65780635daf08ca1461010f575b600080fd5b34801561008c57600080fd5b506100a760048036038101906100a291906106c0565b6101c6565b6040516100b491906108e8565b60405180910390f35b3480156100c957600080fd5b506100e460048036038101906100df9190610761565b6101de565b005b3480156100f257600080fd5b5061010d60048036038101906101089190610712565b610326565b005b34801561011b57600080fd5b5061013660048036038101906101319190610761565b6103d5565b60405161014391906108ab565b60405180910390f35b610166600480360381019061016191906106e9565b610414565b005b34801561017457600080fd5b5061017d610521565b60405161018a91906108c6565b60405180910390f35b34801561019f57600080fd5b506101ba60048036038101906101b591906106c0565b6105af565b005b6101c4610615565b005b60006020528060005260406000206000915090505481565b47811115610221576040517f08c379a000000000000000000000000000000000000000000000000000000000815260040161021890610903565b60405180910390fd5b806000803373ffffffffffffffffffffffffffffffffffffffff1673ffffffffffffffffffffffffffffffffffffffff168152602001908152602001600020600082825461026f9190610a2c565b9250508190555060003373ffffffffffffffffffffffffffffffffffffffff168260405161029c90610896565b60006040518083038185875af1925050503d80600081146102d9576040519150601f19603f3d011682016040523d82523d6000602084013e6102de565b606091505b5050905080610322576040517f08c379a000000000000000000000000000000000000000000000000000000000815260040161031990610923565b60405180910390fd5b5050565b806000808573ffffffffffffffffffffffffffffffffffffffff1673ffffffffffffffffffffffffffffffffffffffff16815260200190815260200160002060008282546103749190610a2c565b92505081905550806000808473ffffffffffffffffffffffffffffffffffffffff1673ffffffffffffffffffffffffffffffffffffffff16815260200190815260200160002060008282546103c99190610998565b92505081905550505050565b600181815481106103e557600080fd5b906000526020600020016000915054906101000a900473ffffffffffffffffffffffffffffffffffffffff1681565b61041c610615565b346000808373ffffffffffffffffffffffffffffffffffffffff1673ffffffffffffffffffffffffffffffffffffffff168152602001908152602001600020600082825461046a9190610a2c565b9250508190555060008173ffffffffffffffffffffffffffffffffffffffff163460405161049790610896565b60006040518083038185875af1925050503d80600081146104d4576040519150601f19603f3d011682016040523d82523d6000602084013e6104d9565b606091505b505090508061051d576040517f08c379a000000000000000000000000000000000000000000000000000000000815260040161051490610923565b60405180910390fd5b5050565b606060018054806020026020016040519081016040528092919081815260200182805480156105a557602002820191906000526020600020905b8160009054906101000a900473ffffffffffffffffffffffffffffffffffffffff1673ffffffffffffffffffffffffffffffffffffffff168152602001906001019080831161055b575b5050505050905090565b6001819080600181540180825580915050600190039060005260206000200160009091909190916101000a81548173ffffffffffffffffffffffffffffffffffffffff021916908373ffffffffffffffffffffffffffffffffffffffff16021790555050565b346000803373ffffffffffffffffffffffffffffffffffffffff1673ffffffffffffffffffffffffffffffffffffffff16815260200190815260200160002060008282546106639190610998565b92505081905550565b60008135905061067b81610bc2565b92915050565b60008135905061069081610bd9565b92915050565b6000813590506106a581610bf0565b92915050565b6000813590506106ba81610c07565b92915050565b6000602082840312156106d257600080fd5b60006106e08482850161066c565b91505092915050565b6000602082840312156106fb57600080fd5b600061070984828501610681565b91505092915050565b60008060006060848603121561072757600080fd5b60006107358682870161066c565b93505060206107468682870161066c565b925050604061075786828701610696565b9150509250925092565b60006020828403121561077357600080fd5b6000610781848285016106ab565b91505092915050565b600061079683836107a2565b60208301905092915050565b6107ab81610ac0565b82525050565b6107ba81610ac0565b82525050565b60006107cb82610953565b6107d5818561096b565b93506107e083610943565b8060005b838110156108115781516107f8888261078a565b97506108038361095e565b9250506001810190506107e4565b5085935050505092915050565b61082781610ae4565b82525050565b600061083a602b83610987565b915061084582610b47565b604082019050919050565b600061085d60008361097c565b915061086882610b96565b600082019050919050565b6000610880600e83610987565b915061088b82610b99565b602082019050919050565b60006108a182610850565b9150819050919050565b60006020820190506108c060008301846107b1565b92915050565b600060208201905081810360008301526108e081846107c0565b905092915050565b60006020820190506108fd600083018461081e565b92915050565b6000602082019050818103600083015261091c8161082d565b9050919050565b6000602082019050818103600083015261093c81610873565b9050919050565b6000819050602082019050919050565b600081519050919050565b6000602082019050919050565b600082825260208201905092915050565b600081905092915050565b600082825260208201905092915050565b60006109a382610ae4565b91506109ae83610ae4565b9250817f7fffffffffffffffffffffffffffffffffffffffffffffffffffffffffffffff038313600083121516156109e9576109e8610b18565b5b817f8000000000000000000000000000000000000000000000000000000000000000038312600083121615610a2157610a20610b18565b5b828201905092915050565b6000610a3782610ae4565b9150610a4283610ae4565b9250827f800000000000000000000000000000000000000000000000000000000000000001821260008412151615610a7d57610a7c610b18565b5b827f7fffffffffffffffffffffffffffffffffffffffffffffffffffffffffffffff018213600084121615610ab557610ab4610b18565b5b828203905092915050565b6000610acb82610aee565b9050919050565b6000610add82610aee565b9050919050565b6000819050919050565b600073ffffffffffffffffffffffffffffffffffffffff82169050919050565b6000819050919050565b7f4e487b7100000000000000000000000000000000000000000000000000000000600052601160045260246000fd5b7f436f6e747261637420646f6573206e6f74206861766520656e6f75676820667560008201527f6e647320746f206c6f616e000000000000000000000000000000000000000000602082015250565b50565b7f4661696c656420746f2073656e64000000000000000000000000000000000000600082015250565b610bcb81610ac0565b8114610bd657600080fd5b50565b610be281610ad2565b8114610bed57600080fd5b50565b610bf981610ae4565b8114610c0457600080fd5b50565b610c1081610b0e565b8114610c1b57600080fd5b5056fea26469706673582212206a0141f880c1d547a3a48aae149696e772e99b8483b99f7c1ef093701727215164736f6c63430008040033",
  "linkReferences": {},
  "deployedLinkReferences": {}
}